{"contracts/MessageBoard.sol":{"MessageBoard":{"abi":[{"anonymous":false,"inputs":[{"indexed":false,"internalType":"bytes32","name":"messageId","type":"bytes32"},{"indexed":false,"internalType":"string","name":"content","type":"string"},{"indexed":false,"internalType":"address","name":"sender","type":"address"},{"indexed":false,"internalType":"uint256","name":"bidAmount","type":"uint256"},{"indexed":false,"internalType":"uint256","name":"timestamp","type":"uint256"}],"name":"MessageAdded","type":"event"},{"stateMutability":"payable","type":"fallback"},{"inputs":[],"name":"DECAY_INTERVAL","outputs":[{"internalType":"uint256","name":"","type":"uint256"}],"stateMutability":"view","type":"function"},{"inputs":[],"name":"DECAY_RATE","outputs":[{"internalType":"uint256","name":"","type":"uint256"}],"stateMutability":"view","type":"function"},{"inputs":[],"name":"MAX_MESSAGES","outputs":[{"internalType":"uint256","name":"","type":"uint256"}],"stateMutability":"view","type":"function"},{"inputs":[{"internalType":"string","name":"_content","type":"string"},{"internalType":"bytes32","name":"_messageId","type":"bytes32"}],"name":"addMessage","outputs":[],"stateMutability":"payable","type":"function"},{"inputs":[],"name":"getMessageCount","outputs":[{"internalType":"uint256","name":"","type":"uint256"}],"stateMutability":"view","type":"function"},{"inputs":[],"name":"getMessages","outputs":[{"components":[{"internalType":"string","name":"content","type":"string"},{"internalType":"address","name":"sender","type":"address"},{"internalType":"uint256","name":"bidAmount","type":"uint256"},{"internalType":"uint256","name":"timestamp","type":"uint256"},{"internalType":"bytes32","name":"messageId","type":"bytes32"}],"internalType":"struct MessageBoard.Message[]","name":"","type":"tuple[]"}],"stateMutability":"view","type":"function"},{"inputs":[{"internalType":"uint256","name":"_page","type":"uint256"},{"internalType":"uint256","name":"_pageSize","type":"uint256"}],"name":"getMessagesPaginated","outputs":[{"components":[{"internalType":"string","name":"content","type":"string"},{"internalType":"address","name":"sender","type":"address"},{"internalType":"uint256","name":"bidAmount","type":"uint256"},{"internalType":"uint256","name":"timestamp","type":"uint256"},{"internalType":"bytes32","name":"messageId","type":"bytes32"}],"internalType":"struct MessageBoard.Message[]","name":"","type":"tuple[]"}],"stateMutability":"view","type":"function"},{"inputs":[],"name":"getMinimumBidForTop100","outputs":[{"internalType":"uint256","name":"","type":"uint256"}],"stateMutability":"view","type":"function"},{"inputs":[],"name":"lastMessageTimestamp","outputs":[{"internalType":"uint256","name":"","type":"uint256"}],"stateMutability":"view","type":"function"},{"inputs":[{"internalType":"uint256","name":"","type":"uint256"}],"name":"messages","outputs":[{"internalType":"string","name":"content","type":"string"},{"internalType":"address","name":"sender","type":"address"},{"internalType":"uint256","name":"bidAmount","type":"uint256"},{"internalType":"uint256","name":"timestamp","type":"uint256"},{"internalType":"bytes32","name":"messageId","type":"bytes32"}],"stateMutability":"view","type":"function"},{"stateMutability":"payable","type":"receive"}],"evm":{"bytecode":{"linkReferences":{},"object":"608060405234801561001057600080fd5b50611160806100206000396000f3fe60806040526004361061008f5760003560e01c806395ffd7f71161005657806395ffd7f714610141578063a9e50c1014610158578063e02737d81461016e578063f5b0bf6214610183578063fff57ebb1461019657005b80630d80fefd146100985780630dfe5a71146100d25780631de40e49146100f5578063319339161461010a5780635ff6cbf31461011f57005b3661009657005b005b3480156100a457600080fd5b506100b86100b3366004610bf3565b6101b6565b6040516100c9959493929190610c52565b60405180910390f35b3480156100de57600080fd5b506100e7606481565b6040519081526020016100c9565b34801561010157600080fd5b506100e7603281565b34801561011657600080fd5b506000546100e7565b34801561012b57600080fd5b5061013461028f565b6040516100c99190610c92565b34801561014d57600080fd5b506100e76201518081565b34801561016457600080fd5b506100e760015481565b34801561017a57600080fd5b506100e76103b7565b610096610191366004610d30565b61048f565b3480156101a257600080fd5b506101346101b1366004610da8565b61089f565b600081815481106101c657600080fd5b90600052602060002090600502016000915090508060000180546101e990610dca565b80601f016020809104026020016040519081016040528092919081815260200182805461021590610dca565b80156102625780601f1061023757610100808354040283529160200191610262565b820191906000526020600020905b81548152906001019060200180831161024557829003601f168201915b5050505060018301546002840154600385015460049095015493946001600160a01b039092169390925085565b60606000805480602002602001604051908101604052809291908181526020016000905b828210156103ae57838290600052602060002090600502016040518060a00160405290816000820180546102e690610dca565b80601f016020809104026020016040519081016040528092919081815260200182805461031290610dca565b801561035f5780601f106103345761010080835404028352916020019161035f565b820191906000526020600020905b81548152906001019060200180831161034257829003601f168201915b50505091835250506001828101546001600160a01b03166020808401919091526002840154604084015260038401546060840152600490930154608090920191909152918352920191016102b3565b50505050905090565b60008054606411156103c95750600090565b6000806103d860016064610e1a565b815481106103e8576103e8610e2d565b906000526020600020906005020160020154905060015460000361040b57919050565b60006001544261041b9190610e1a565b90506201518081101561042e5750919050565b600061043d6201518083610e43565b90508260005b82811015610486576064610458603282610e1a565b6104629084610e65565b61046c9190610e43565b91508115610486578061047e81610e7c565b915050610443565b50949350505050565b600034116104ee5760405162461bcd60e51b815260206004820152602160248201527f42696420616d6f756e74206d7573742062652067726561746572207468616e206044820152600360fc1b60648201526084015b60405180910390fd5b60006104f86103b7565b905080341161057b5760405162461bcd60e51b815260206004820152604360248201527f42696420616d6f756e74206d7573742062652067726561746572207468616e2060448201527f7468652063757272656e74206d696e696d756d2062696420666f7220746f702060648201526203130360ec1b608482015260a4016104e5565b6040805160c06020601f8701819004028201810190925260a0810185815260009282919088908890819085018382808284376000920182905250938552505033602084015250346040830152426060830152608090910185905280546001810182559080528151919250908290600583027f290decd9548b62a8d60345a988386fc84ba6bc95484008f6362f93160ef3e5630190819061061b9082610efa565b5060208201516001820180546001600160a01b0319166001600160a01b0390921691909117905560408201516002820155606082015160038201556080909101516004909101555b6000811180156106a4575060408201516000610680600184610e1a565b8154811061069057610690610e2d565b906000526020600020906005020160020154105b156107585760006106b6600183610e1a565b815481106106c6576106c6610e2d565b9060005260206000209060050201600082815481106106e7576106e7610e2d565b60009182526020909120600590910201806107028382610fba565b5060018281015490820180546001600160a01b0319166001600160a01b0390921691909117905560028083015490820155600380830154908201556004918201549101558061075081611095565b915050610663565b60005461076790600190610e1a565b81146107e857816000828154811061078157610781610e2d565b6000918252602090912082516005909202019081906107a09082610efa565b5060208201516001820180546001600160a01b0319166001600160a01b0390921691909117905560408201516002820155606082015160038201556080909101516004909101555b60005460641015610850576000805480610804576108046110ac565b600082815260208120600019909201916005830201906108248282610b62565b506001810180546001600160a01b03191690556000600282018190556003820181905560049091015590555b4260018190556040517fb134689da6f5f1fbcb32f25a4cc49f1acfd9203eaaa23e6eeb6a42a6ca5f226d9161088f9187918a918a9133913491906110c2565b60405180910390a1505050505050565b6060600083116108f15760405162461bcd60e51b815260206004820152601b60248201527f50616765206d7573742062652067726561746572207468616e2030000000000060448201526064016104e5565b600082116109415760405162461bcd60e51b815260206004820181905260248201527f506167652073697a65206d7573742062652067726561746572207468616e203060448201526064016104e5565b600080549083610952600187610e1a565b61095c9190610e65565b90508181106109a0576040805160008082526020820190925290610996565b610983610b9f565b81526020019060019003908161097b5790505b5092505050610b5c565b60006109ac8583611117565b9050828111156109b95750815b60006109c58383610e1a565b905060008167ffffffffffffffff8111156109e2576109e2610e95565b604051908082528060200260200182016040528015610a1b57816020015b610a08610b9f565b815260200190600190039081610a005790505b50905060005b82811015610b54576000610a358287611117565b81548110610a4557610a45610e2d565b90600052602060002090600502016040518060a0016040529081600082018054610a6e90610dca565b80601f0160208091040260200160405190810160405280929190818152602001828054610a9a90610dca565b8015610ae75780601f10610abc57610100808354040283529160200191610ae7565b820191906000526020600020905b815481529060010190602001808311610aca57829003601f168201915b505050918352505060018201546001600160a01b0316602082015260028201546040820152600382015460608201526004909101546080909101528251839083908110610b3657610b36610e2d565b60200260200101819052508080610b4c90610e7c565b915050610a21565b509450505050505b92915050565b508054610b6e90610dca565b6000825580601f10610b7e575050565b601f016020900490600052602060002090810190610b9c9190610bda565b50565b6040518060a001604052806060815260200160006001600160a01b031681526020016000815260200160008152602001600080191681525090565b5b80821115610bef5760008155600101610bdb565b5090565b600060208284031215610c0557600080fd5b5035919050565b6000815180845260005b81811015610c3257602081850181015186830182015201610c16565b506000602082860101526020601f19601f83011685010191505092915050565b60a081526000610c6560a0830188610c0c565b6001600160a01b039690961660208301525060408101939093526060830191909152608090910152919050565b60006020808301818452808551808352604092508286019150828160051b87010184880160005b83811015610d2257603f19898403018552815160a08151818652610cdf82870182610c0c565b838b01516001600160a01b0316878c0152898401518a88015260608085015190880152608093840151939096019290925250509386019390860190600101610cb9565b509098975050505050505050565b600080600060408486031215610d4557600080fd5b833567ffffffffffffffff80821115610d5d57600080fd5b818601915086601f830112610d7157600080fd5b813581811115610d8057600080fd5b876020828501011115610d9257600080fd5b6020928301989097509590910135949350505050565b60008060408385031215610dbb57600080fd5b50508035926020909101359150565b600181811c90821680610dde57607f821691505b602082108103610dfe57634e487b7160e01b600052602260045260246000fd5b50919050565b634e487b7160e01b600052601160045260246000fd5b81810381811115610b5c57610b5c610e04565b634e487b7160e01b600052603260045260246000fd5b600082610e6057634e487b7160e01b600052601260045260246000fd5b500490565b8082028115828204841417610b5c57610b5c610e04565b600060018201610e8e57610e8e610e04565b5060010190565b634e487b7160e01b600052604160045260246000fd5b601f821115610ef557600081815260208120601f850160051c81016020861015610ed25750805b601f850160051c820191505b81811015610ef157828155600101610ede565b5050505b505050565b815167ffffffffffffffff811115610f1457610f14610e95565b610f2881610f228454610dca565b84610eab565b602080601f831160018114610f5d5760008415610f455750858301515b600019600386901b1c1916600185901b178555610ef1565b600085815260208120601f198616915b82811015610f8c57888601518255948401946001909101908401610f6d565b5085821015610faa5787850151600019600388901b60f8161c191681555b5050505050600190811b01905550565b818103610fc5575050565b610fcf8254610dca565b67ffffffffffffffff811115610fe757610fe7610e95565b610ff581610f228454610dca565b6000601f82116001811461102957600083156110115750848201545b600019600385901b1c1916600184901b17845561108e565b600085815260209020601f19841690600086815260209020845b838110156110635782860154825560019586019590910190602001611043565b50858310156110815781850154600019600388901b60f8161c191681555b50505060018360011b0184555b5050505050565b6000816110a4576110a4610e04565b506000190190565b634e487b7160e01b600052603160045260246000fd5b86815260a060208201528460a0820152848660c0830137600060c08683018101919091526001600160a01b0394909416604082015260608101929092526080820152601f909201601f19169091010192915050565b80820180821115610b5c57610b5c610e0456fea264697066735822122019f581fef9f931be47c1cdbf63e01ad3135b4d4d1f8eb97ce22894b314ca473664736f6c63430008130033","opcodes":"PUSH1 0x80 PUSH1 0x40 MSTORE CALLVALUE DUP1 ISZERO PUSH2 0x10 JUMPI PUSH1 0x0 DUP1 REVERT JUMPDEST POP PUSH2 0x1160 DUP1 PUSH2 0x20 PUSH1 0x0 CODECOPY PUSH1 0x0 RETURN INVALID PUSH1 0x80 PUSH1 0x40 MSTORE PUSH1 0x4 CALLDATASIZE LT PUSH2 0x8F JUMPI PUSH1 0x0 CALLDATALOAD PUSH1 0xE0 SHR DUP1 PUSH4 0x95FFD7F7 GT PUSH2 0x56 JUMPI DUP1 PUSH4 0x95FFD7F7 EQ PUSH2 0x141 JUMPI DUP1 PUSH4 0xA9E50C10 EQ PUSH2 0x158 JUMPI DUP1 PUSH4 0xE02737D8 EQ PUSH2 0x16E JUMPI DUP1 PUSH4 0xF5B0BF62 EQ PUSH2 0x183 JUMPI DUP1 PUSH4 0xFFF57EBB EQ PUSH2 0x196 JUMPI STOP JUMPDEST DUP1 PUSH4 0xD80FEFD EQ PUSH2 0x98 JUMPI DUP1 PUSH4 0xDFE5A71 EQ PUSH2 0xD2 JUMPI DUP1 PUSH4 0x1DE40E49 EQ PUSH2 0xF5 JUMPI DUP1 PUSH4 0x31933916 EQ PUSH2 0x10A JUMPI DUP1 PUSH4 0x5FF6CBF3 EQ PUSH2 0x11F JUMPI STOP JUMPDEST CALLDATASIZE PUSH2 0x96 JUMPI STOP JUMPDEST STOP JUMPDEST CALLVALUE DUP1 ISZERO PUSH2 0xA4 JUMPI PUSH1 0x0 DUP1 REVERT JUMPDEST POP PUSH2 0xB8 PUSH2 0xB3 CALLDATASIZE PUSH1 0x4 PUSH2 0xBF3 JUMP JUMPDEST PUSH2 0x1B6 JUMP JUMPDEST PUSH1 0x40 MLOAD PUSH2 0xC9 SWAP6 SWAP5 SWAP4 SWAP3 SWAP2 SWAP1 PUSH2 0xC52 JUMP JUMPDEST PUSH1 0x40 MLOAD DUP1 SWAP2 SUB SWAP1 RETURN JUMPDEST CALLVALUE DUP1 ISZERO PUSH2 0xDE JUMPI PUSH1 0x0 DUP1 REVERT JUMPDEST POP PUSH2 0xE7 PUSH1 0x64 DUP2 JUMP JUMPDEST PUSH1 0x40 MLOAD SWAP1 DUP2 MSTORE PUSH1 0x20 ADD PUSH2 0xC9 JUMP JUMPDEST CALLVALUE DUP1 ISZERO PUSH2 0x101 JUMPI PUSH1 0x0 DUP1 REVERT JUMPDEST POP PUSH2 0xE7 PUSH1 0x32 DUP2 JUMP JUMPDEST CALLVALUE DUP1 ISZERO PUSH2 0x116 JUMPI PUSH1 0x0 DUP1 REVERT JUMPDEST POP PUSH1 0x0 SLOAD PUSH2 0xE7 JUMP JUMPDEST CALLVALUE DUP1 ISZERO PUSH2 0x12B JUMPI PUSH1 0x0 DUP1 REVERT JUMPDEST POP PUSH2 0x134 PUSH2 0x28F JUMP JUMPDEST PUSH1 0x40 MLOAD PUSH2 0xC9 SWAP2 SWAP1 PUSH2 0xC92 JUMP JUMPDEST CALLVALUE DUP1 ISZERO PUSH2 0x14D JUMPI PUSH1 0x0 DUP1 REVERT JUMPDEST POP PUSH2 0xE7 PUSH3 0x15180 DUP2 JUMP JUMPDEST CALLVALUE DUP1 ISZERO PUSH2 0x164 JUMPI PUSH1 0x0 DUP1 REVERT JUMPDEST POP PUSH2 0xE7 PUSH1 0x1 SLOAD DUP2 JUMP JUMPDEST CALLVALUE DUP1 ISZERO PUSH2 0x17A JUMPI PUSH1 0x0 DUP1 REVERT JUMPDEST POP PUSH2 0xE7 PUSH2 0x3B7 JUMP JUMPDEST PUSH2 0x96 PUSH2 0x191 CALLDATASIZE PUSH1 0x4 PUSH2 0xD30 JUMP JUMPDEST PUSH2 0x48F JUMP JUMPDEST CALLVALUE DUP1 ISZERO PUSH2 0x1A2 JUMPI PUSH1 0x0 DUP1 REVERT JUMPDEST POP PUSH2 0x134 PUSH2 0x1B1 CALLDATASIZE PUSH1 0x4 PUSH2 0xDA8 JUMP JUMPDEST PUSH2 0x89F JUMP JUMPDEST PUSH1 0x0 DUP2 DUP2 SLOAD DUP2 LT PUSH2 0x1C6 JUMPI PUSH1 0x0 DUP1 REVERT JUMPDEST SWAP1 PUSH1 0x0 MSTORE PUSH1 0x20 PUSH1 0x0 KECCAK256 SWAP1 PUSH1 0x5 MUL ADD PUSH1 0x0 SWAP2 POP SWAP1 POP DUP1 PUSH1 0x0 ADD DUP1 SLOAD PUSH2 0x1E9 SWAP1 PUSH2 0xDCA JUMP JUMPDEST DUP1 PUSH1 0x1F ADD PUSH1 0x20 DUP1 SWAP2 DIV MUL PUSH1 0x20 ADD PUSH1 0x40 MLOAD SWAP1 DUP2 ADD PUSH1 0x40 MSTORE DUP1 SWAP3 SWAP2 SWAP1 DUP2 DUP2 MSTORE PUSH1 0x20 ADD DUP3 DUP1 SLOAD PUSH2 0x215 SWAP1 PUSH2 0xDCA JUMP JUMPDEST DUP1 ISZERO PUSH2 0x262 JUMPI DUP1 PUSH1 0x1F LT PUSH2 0x237 JUMPI PUSH2 0x100 DUP1 DUP4 SLOAD DIV MUL DUP4 MSTORE SWAP2 PUSH1 0x20 ADD SWAP2 PUSH2 0x262 JUMP JUMPDEST DUP3 ADD SWAP2 SWAP1 PUSH1 0x0 MSTORE PUSH1 0x20 PUSH1 0x0 KECCAK256 SWAP1 JUMPDEST DUP2 SLOAD DUP2 MSTORE SWAP1 PUSH1 0x1 ADD SWAP1 PUSH1 0x20 ADD DUP1 DUP4 GT PUSH2 0x245 JUMPI DUP3 SWAP1 SUB PUSH1 0x1F AND DUP3 ADD SWAP2 JUMPDEST POP POP POP POP PUSH1 0x1 DUP4 ADD SLOAD PUSH1 0x2 DUP5 ADD SLOAD PUSH1 0x3 DUP6 ADD SLOAD PUSH1 0x4 SWAP1 SWAP6 ADD SLOAD SWAP4 SWAP5 PUSH1 0x1 PUSH1 0x1 PUSH1 0xA0 SHL SUB SWAP1 SWAP3 AND SWAP4 SWAP1 SWAP3 POP DUP6 JUMP JUMPDEST PUSH1 0x60 PUSH1 0x0 DUP1 SLOAD DUP1 PUSH1 0x20 MUL PUSH1 0x20 ADD PUSH1 0x40 MLOAD SWAP1 DUP2 ADD PUSH1 0x40 MSTORE DUP1 SWAP3 SWAP2 SWAP1 DUP2 DUP2 MSTORE PUSH1 0x20 ADD PUSH1 0x0 SWAP1 JUMPDEST DUP3 DUP3 LT ISZERO PUSH2 0x3AE JUMPI DUP4 DUP3 SWAP1 PUSH1 0x0 MSTORE PUSH1 0x20 PUSH1 0x0 KECCAK256 SWAP1 PUSH1 0x5 MUL ADD PUSH1 0x40 MLOAD DUP1 PUSH1 0xA0 ADD PUSH1 0x40 MSTORE SWAP1 DUP2 PUSH1 0x0 DUP3 ADD DUP1 SLOAD PUSH2 0x2E6 SWAP1 PUSH2 0xDCA JUMP JUMPDEST DUP1 PUSH1 0x1F ADD PUSH1 0x20 DUP1 SWAP2 DIV MUL PUSH1 0x20 ADD PUSH1 0x40 MLOAD SWAP1 DUP2 ADD PUSH1 0x40 MSTORE DUP1 SWAP3 SWAP2 SWAP1 DUP2 DUP2 MSTORE PUSH1 0x20 ADD DUP3 DUP1 SLOAD PUSH2 0x312 SWAP1 PUSH2 0xDCA JUMP JUMPDEST DUP1 ISZERO PUSH2 0x35F JUMPI DUP1 PUSH1 0x1F LT PUSH2 0x334 JUMPI PUSH2 0x100 DUP1 DUP4 SLOAD DIV MUL DUP4 MSTORE SWAP2 PUSH1 0x20 ADD SWAP2 PUSH2 0x35F JUMP JUMPDEST DUP3 ADD SWAP2 SWAP1 PUSH1 0x0 MSTORE PUSH1 0x20 PUSH1 0x0 KECCAK256 SWAP1 JUMPDEST DUP2 SLOAD DUP2 MSTORE SWAP1 PUSH1 0x1 ADD SWAP1 PUSH1 0x20 ADD DUP1 DUP4 GT PUSH2 0x342 JUMPI DUP3 SWAP1 SUB PUSH1 0x1F AND DUP3 ADD SWAP2 JUMPDEST POP POP POP SWAP2 DUP4 MSTORE POP POP PUSH1 0x1 DUP3 DUP2 ADD SLOAD PUSH1 0x1 PUSH1 0x1 PUSH1 0xA0 SHL SUB AND PUSH1 0x20 DUP1 DUP5 ADD SWAP2 SWAP1 SWAP2 MSTORE PUSH1 0x2 DUP5 ADD SLOAD PUSH1 0x40 DUP5 ADD MSTORE PUSH1 0x3 DUP5 ADD SLOAD PUSH1 0x60 DUP5 ADD MSTORE PUSH1 0x4 SWAP1 SWAP4 ADD SLOAD PUSH1 0x80 SWAP1 SWAP3 ADD SWAP2 SWAP1 SWAP2 MSTORE SWAP2 DUP4 MSTORE SWAP3 ADD SWAP2 ADD PUSH2 0x2B3 JUMP JUMPDEST POP POP POP POP SWAP1 POP SWAP1 JUMP JUMPDEST PUSH1 0x0 DUP1 SLOAD PUSH1 0x64 GT ISZERO PUSH2 0x3C9 JUMPI POP PUSH1 0x0 SWAP1 JUMP JUMPDEST PUSH1 0x0 DUP1 PUSH2 0x3D8 PUSH1 0x1 PUSH1 0x64 PUSH2 0xE1A JUMP JUMPDEST DUP2 SLOAD DUP2 LT PUSH2 0x3E8 JUMPI PUSH2 0x3E8 PUSH2 0xE2D JUMP JUMPDEST SWAP1 PUSH1 0x0 MSTORE PUSH1 0x20 PUSH1 0x0 KECCAK256 SWAP1 PUSH1 0x5 MUL ADD PUSH1 0x2 ADD SLOAD SWAP1 POP PUSH1 0x1 SLOAD PUSH1 0x0 SUB PUSH2 0x40B JUMPI SWAP2 SWAP1 POP JUMP JUMPDEST PUSH1 0x0 PUSH1 0x1 SLOAD TIMESTAMP PUSH2 0x41B SWAP2 SWAP1 PUSH2 0xE1A JUMP JUMPDEST SWAP1 POP PUSH3 0x15180 DUP2 LT ISZERO PUSH2 0x42E JUMPI POP SWAP2 SWAP1 POP JUMP JUMPDEST PUSH1 0x0 PUSH2 0x43D PUSH3 0x15180 DUP4 PUSH2 0xE43 JUMP JUMPDEST SWAP1 POP DUP3 PUSH1 0x0 JUMPDEST DUP3 DUP2 LT ISZERO PUSH2 0x486 JUMPI PUSH1 0x64 PUSH2 0x458 PUSH1 0x32 DUP3 PUSH2 0xE1A JUMP JUMPDEST PUSH2 0x462 SWAP1 DUP5 PUSH2 0xE65 JUMP JUMPDEST PUSH2 0x46C SWAP2 SWAP1 PUSH2 0xE43 JUMP JUMPDEST SWAP2 POP DUP2 ISZERO PUSH2 0x486 JUMPI DUP1 PUSH2 0x47E DUP2 PUSH2 0xE7C JUMP JUMPDEST SWAP2 POP POP PUSH2 0x443 JUMP JUMPDEST POP SWAP5 SWAP4 POP POP POP POP JUMP JUMPDEST PUSH1 0x0 CALLVALUE GT PUSH2 0x4EE JUMPI PUSH1 0x40 MLOAD PUSH3 0x461BCD PUSH1 0xE5 SHL DUP2 MSTORE PUSH1 0x20 PUSH1 0x4 DUP3 ADD MSTORE PUSH1 0x21 PUSH1 0x24 DUP3 ADD MSTORE PUSH32 0x42696420616D6F756E74206D7573742062652067726561746572207468616E20 PUSH1 0x44 DUP3 ADD MSTORE PUSH1 0x3 PUSH1 0xFC SHL PUSH1 0x64 DUP3 ADD MSTORE PUSH1 0x84 ADD JUMPDEST PUSH1 0x40 MLOAD DUP1 SWAP2 SUB SWAP1 REVERT JUMPDEST PUSH1 0x0 PUSH2 0x4F8 PUSH2 0x3B7 JUMP JUMPDEST SWAP1 POP DUP1 CALLVALUE GT PUSH2 0x57B JUMPI PUSH1 0x40 MLOAD PUSH3 0x461BCD PUSH1 0xE5 SHL DUP2 MSTORE PUSH1 0x20 PUSH1 0x4 DUP3 ADD MSTORE PUSH1 0x43 PUSH1 0x24 DUP3 ADD MSTORE PUSH32 0x42696420616D6F756E74206D7573742062652067726561746572207468616E20 PUSH1 0x44 DUP3 ADD MSTORE PUSH32 0x7468652063757272656E74206D696E696D756D2062696420666F7220746F7020 PUSH1 0x64 DUP3 ADD MSTORE PUSH3 0x31303 PUSH1 0xEC SHL PUSH1 0x84 DUP3 ADD MSTORE PUSH1 0xA4 ADD PUSH2 0x4E5 JUMP JUMPDEST PUSH1 0x40 DUP1 MLOAD PUSH1 0xC0 PUSH1 0x20 PUSH1 0x1F DUP8 ADD DUP2 SWAP1 DIV MUL DUP3 ADD DUP2 ADD SWAP1 SWAP3 MSTORE PUSH1 0xA0 DUP2 ADD DUP6 DUP2 MSTORE PUSH1 0x0 SWAP3 DUP3 SWAP2 SWAP1 DUP9 SWAP1 DUP9 SWAP1 DUP2 SWAP1 DUP6 ADD DUP4 DUP3 DUP1 DUP3 DUP5 CALLDATACOPY PUSH1 0x0 SWAP3 ADD DUP3 SWAP1 MSTORE POP SWAP4 DUP6 MSTORE POP POP CALLER PUSH1 0x20 DUP5 ADD MSTORE POP CALLVALUE PUSH1 0x40 DUP4 ADD MSTORE TIMESTAMP PUSH1 0x60 DUP4 ADD MSTORE PUSH1 0x80 SWAP1 SWAP2 ADD DUP6 SWAP1 MSTORE DUP1 SLOAD PUSH1 0x1 DUP2 ADD DUP3 SSTORE SWAP1 DUP1 MSTORE DUP2 MLOAD SWAP2 SWAP3 POP SWAP1 DUP3 SWAP1 PUSH1 0x5 DUP4 MUL PUSH32 0x290DECD9548B62A8D60345A988386FC84BA6BC95484008F6362F93160EF3E563 ADD SWAP1 DUP2 SWAP1 PUSH2 0x61B SWAP1 DUP3 PUSH2 0xEFA JUMP JUMPDEST POP PUSH1 0x20 DUP3 ADD MLOAD PUSH1 0x1 DUP3 ADD DUP1 SLOAD PUSH1 0x1 PUSH1 0x1 PUSH1 0xA0 SHL SUB NOT AND PUSH1 0x1 PUSH1 0x1 PUSH1 0xA0 SHL SUB SWAP1 SWAP3 AND SWAP2 SWAP1 SWAP2 OR SWAP1 SSTORE PUSH1 0x40 DUP3 ADD MLOAD PUSH1 0x2 DUP3 ADD SSTORE PUSH1 0x60 DUP3 ADD MLOAD PUSH1 0x3 DUP3 ADD SSTORE PUSH1 0x80 SWAP1 SWAP2 ADD MLOAD PUSH1 0x4 SWAP1 SWAP2 ADD SSTORE JUMPDEST PUSH1 0x0 DUP2 GT DUP1 ISZERO PUSH2 0x6A4 JUMPI POP PUSH1 0x40 DUP3 ADD MLOAD PUSH1 0x0 PUSH2 0x680 PUSH1 0x1 DUP5 PUSH2 0xE1A JUMP JUMPDEST DUP2 SLOAD DUP2 LT PUSH2 0x690 JUMPI PUSH2 0x690 PUSH2 0xE2D JUMP JUMPDEST SWAP1 PUSH1 0x0 MSTORE PUSH1 0x20 PUSH1 0x0 KECCAK256 SWAP1 PUSH1 0x5 MUL ADD PUSH1 0x2 ADD SLOAD LT JUMPDEST ISZERO PUSH2 0x758 JUMPI PUSH1 0x0 PUSH2 0x6B6 PUSH1 0x1 DUP4 PUSH2 0xE1A JUMP JUMPDEST DUP2 SLOAD DUP2 LT PUSH2 0x6C6 JUMPI PUSH2 0x6C6 PUSH2 0xE2D JUMP JUMPDEST SWAP1 PUSH1 0x0 MSTORE PUSH1 0x20 PUSH1 0x0 KECCAK256 SWAP1 PUSH1 0x5 MUL ADD PUSH1 0x0 DUP3 DUP2 SLOAD DUP2 LT PUSH2 0x6E7 JUMPI PUSH2 0x6E7 PUSH2 0xE2D JUMP JUMPDEST PUSH1 0x0 SWAP2 DUP3 MSTORE PUSH1 0x20 SWAP1 SWAP2 KECCAK256 PUSH1 0x5 SWAP1 SWAP2 MUL ADD DUP1 PUSH2 0x702 DUP4 DUP3 PUSH2 0xFBA JUMP JUMPDEST POP PUSH1 0x1 DUP3 DUP2 ADD SLOAD SWAP1 DUP3 ADD DUP1 SLOAD PUSH1 0x1 PUSH1 0x1 PUSH1 0xA0 SHL SUB NOT AND PUSH1 0x1 PUSH1 0x1 PUSH1 0xA0 SHL SUB SWAP1 SWAP3 AND SWAP2 SWAP1 SWAP2 OR SWAP1 SSTORE PUSH1 0x2 DUP1 DUP4 ADD SLOAD SWAP1 DUP3 ADD SSTORE PUSH1 0x3 DUP1 DUP4 ADD SLOAD SWAP1 DUP3 ADD SSTORE PUSH1 0x4 SWAP2 DUP3 ADD SLOAD SWAP2 ADD SSTORE DUP1 PUSH2 0x750 DUP2 PUSH2 0x1095 JUMP JUMPDEST SWAP2 POP POP PUSH2 0x663 JUMP JUMPDEST PUSH1 0x0 SLOAD PUSH2 0x767 SWAP1 PUSH1 0x1 SWAP1 PUSH2 0xE1A JUMP JUMPDEST DUP2 EQ PUSH2 0x7E8 JUMPI DUP2 PUSH1 0x0 DUP3 DUP2 SLOAD DUP2 LT PUSH2 0x781 JUMPI PUSH2 0x781 PUSH2 0xE2D JUMP JUMPDEST PUSH1 0x0 SWAP2 DUP3 MSTORE PUSH1 0x20 SWAP1 SWAP2 KECCAK256 DUP3 MLOAD PUSH1 0x5 SWAP1 SWAP3 MUL ADD SWAP1 DUP2 SWAP1 PUSH2 0x7A0 SWAP1 DUP3 PUSH2 0xEFA JUMP JUMPDEST POP PUSH1 0x20 DUP3 ADD MLOAD PUSH1 0x1 DUP3 ADD DUP1 SLOAD PUSH1 0x1 PUSH1 0x1 PUSH1 0xA0 SHL SUB NOT AND PUSH1 0x1 PUSH1 0x1 PUSH1 0xA0 SHL SUB SWAP1 SWAP3 AND SWAP2 SWAP1 SWAP2 OR SWAP1 SSTORE PUSH1 0x40 DUP3 ADD MLOAD PUSH1 0x2 DUP3 ADD SSTORE PUSH1 0x60 DUP3 ADD MLOAD PUSH1 0x3 DUP3 ADD SSTORE PUSH1 0x80 SWAP1 SWAP2 ADD MLOAD PUSH1 0x4 SWAP1 SWAP2 ADD SSTORE JUMPDEST PUSH1 0x0 SLOAD PUSH1 0x64 LT ISZERO PUSH2 0x850 JUMPI PUSH1 0x0 DUP1 SLOAD DUP1 PUSH2 0x804 JUMPI PUSH2 0x804 PUSH2 0x10AC JUMP JUMPDEST PUSH1 0x0 DUP3 DUP2 MSTORE PUSH1 0x20 DUP2 KECCAK256 PUSH1 0x0 NOT SWAP1 SWAP3 ADD SWAP2 PUSH1 0x5 DUP4 MUL ADD SWAP1 PUSH2 0x824 DUP3 DUP3 PUSH2 0xB62 JUMP JUMPDEST POP PUSH1 0x1 DUP2 ADD DUP1 SLOAD PUSH1 0x1 PUSH1 0x1 PUSH1 0xA0 SHL SUB NOT AND SWAP1 SSTORE PUSH1 0x0 PUSH1 0x2 DUP3 ADD DUP2 SWAP1 SSTORE PUSH1 0x3 DUP3 ADD DUP2 SWAP1 SSTORE PUSH1 0x4 SWAP1 SWAP2 ADD SSTORE SWAP1 SSTORE JUMPDEST TIMESTAMP PUSH1 0x1 DUP2 SWAP1 SSTORE PUSH1 0x40 MLOAD PUSH32 0xB134689DA6F5F1FBCB32F25A4CC49F1ACFD9203EAAA23E6EEB6A42A6CA5F226D SWAP2 PUSH2 0x88F SWAP2 DUP8 SWAP2 DUP11 SWAP2 DUP11 SWAP2 CALLER SWAP2 CALLVALUE SWAP2 SWAP1 PUSH2 0x10C2 JUMP JUMPDEST PUSH1 0x40 MLOAD DUP1 SWAP2 SUB SWAP1 LOG1 POP POP POP POP POP POP JUMP JUMPDEST PUSH1 0x60 PUSH1 0x0 DUP4 GT PUSH2 0x8F1 JUMPI PUSH1 0x40 MLOAD PUSH3 0x461BCD PUSH1 0xE5 SHL DUP2 MSTORE PUSH1 0x20 PUSH1 0x4 DUP3 ADD MSTORE PUSH1 0x1B PUSH1 0x24 DUP3 ADD MSTORE PUSH32 0x50616765206D7573742062652067726561746572207468616E20300000000000 PUSH1 0x44 DUP3 ADD MSTORE PUSH1 0x64 ADD PUSH2 0x4E5 JUMP JUMPDEST PUSH1 0x0 DUP3 GT PUSH2 0x941 JUMPI PUSH1 0x40 MLOAD PUSH3 0x461BCD PUSH1 0xE5 SHL DUP2 MSTORE PUSH1 0x20 PUSH1 0x4 DUP3 ADD DUP2 SWAP1 MSTORE PUSH1 0x24 DUP3 ADD MSTORE PUSH32 0x506167652073697A65206D7573742062652067726561746572207468616E2030 PUSH1 0x44 DUP3 ADD MSTORE PUSH1 0x64 ADD PUSH2 0x4E5 JUMP JUMPDEST PUSH1 0x0 DUP1 SLOAD SWAP1 DUP4 PUSH2 0x952 PUSH1 0x1 DUP8 PUSH2 0xE1A JUMP JUMPDEST PUSH2 0x95C SWAP2 SWAP1 PUSH2 0xE65 JUMP JUMPDEST SWAP1 POP DUP2 DUP2 LT PUSH2 0x9A0 JUMPI PUSH1 0x40 DUP1 MLOAD PUSH1 0x0 DUP1 DUP3 MSTORE PUSH1 0x20 DUP3 ADD SWAP1 SWAP3 MSTORE SWAP1 PUSH2 0x996 JUMP JUMPDEST PUSH2 0x983 PUSH2 0xB9F JUMP JUMPDEST DUP2 MSTORE PUSH1 0x20 ADD SWAP1 PUSH1 0x1 SWAP1 SUB SWAP1 DUP2 PUSH2 0x97B JUMPI SWAP1 POP JUMPDEST POP SWAP3 POP POP POP PUSH2 0xB5C JUMP JUMPDEST PUSH1 0x0 PUSH2 0x9AC DUP6 DUP4 PUSH2 0x1117 JUMP JUMPDEST SWAP1 POP DUP3 DUP2 GT ISZERO PUSH2 0x9B9 JUMPI POP DUP2 JUMPDEST PUSH1 0x0 PUSH2 0x9C5 DUP4 DUP4 PUSH2 0xE1A JUMP JUMPDEST SWAP1 POP PUSH1 0x0 DUP2 PUSH8 0xFFFFFFFFFFFFFFFF DUP2 GT ISZERO PUSH2 0x9E2 JUMPI PUSH2 0x9E2 PUSH2 0xE95 JUMP JUMPDEST PUSH1 0x40 MLOAD SWAP1 DUP1 DUP3 MSTORE DUP1 PUSH1 0x20 MUL PUSH1 0x20 ADD DUP3 ADD PUSH1 0x40 MSTORE DUP1 ISZERO PUSH2 0xA1B JUMPI DUP2 PUSH1 0x20 ADD JUMPDEST PUSH2 0xA08 PUSH2 0xB9F JUMP JUMPDEST DUP2 MSTORE PUSH1 0x20 ADD SWAP1 PUSH1 0x1 SWAP1 SUB SWAP1 DUP2 PUSH2 0xA00 JUMPI SWAP1 POP JUMPDEST POP SWAP1 POP PUSH1 0x0 JUMPDEST DUP3 DUP2 LT ISZERO PUSH2 0xB54 JUMPI PUSH1 0x0 PUSH2 0xA35 DUP3 DUP8 PUSH2 0x1117 JUMP JUMPDEST DUP2 SLOAD DUP2 LT PUSH2 0xA45 JUMPI PUSH2 0xA45 PUSH2 0xE2D JUMP JUMPDEST SWAP1 PUSH1 0x0 MSTORE PUSH1 0x20 PUSH1 0x0 KECCAK256 SWAP1 PUSH1 0x5 MUL ADD PUSH1 0x40 MLOAD DUP1 PUSH1 0xA0 ADD PUSH1 0x40 MSTORE SWAP1 DUP2 PUSH1 0x0 DUP3 ADD DUP1 SLOAD PUSH2 0xA6E SWAP1 PUSH2 0xDCA JUMP JUMPDEST DUP1 PUSH1 0x1F ADD PUSH1 0x20 DUP1 SWAP2 DIV MUL PUSH1 0x20 ADD PUSH1 0x40 MLOAD SWAP1 DUP2 ADD PUSH1 0x40 MSTORE DUP1 SWAP3 SWAP2 SWAP1 DUP2 DUP2 MSTORE PUSH1 0x20 ADD DUP3 DUP1 SLOAD PUSH2 0xA9A SWAP1 PUSH2 0xDCA JUMP JUMPDEST DUP1 ISZERO PUSH2 0xAE7 JUMPI DUP1 PUSH1 0x1F LT PUSH2 0xABC JUMPI PUSH2 0x100 DUP1 DUP4 SLOAD DIV MUL DUP4 MSTORE SWAP2 PUSH1 0x20 ADD SWAP2 PUSH2 0xAE7 JUMP JUMPDEST DUP3 ADD SWAP2 SWAP1 PUSH1 0x0 MSTORE PUSH1 0x20 PUSH1 0x0 KECCAK256 SWAP1 JUMPDEST DUP2 SLOAD DUP2 MSTORE SWAP1 PUSH1 0x1 ADD SWAP1 PUSH1 0x20 ADD DUP1 DUP4 GT PUSH2 0xACA JUMPI DUP3 SWAP1 SUB PUSH1 0x1F AND DUP3 ADD SWAP2 JUMPDEST POP POP POP SWAP2 DUP4 MSTORE POP POP PUSH1 0x1 DUP3 ADD SLOAD PUSH1 0x1 PUSH1 0x1 PUSH1 0xA0 SHL SUB AND PUSH1 0x20 DUP3 ADD MSTORE PUSH1 0x2 DUP3 ADD SLOAD PUSH1 0x40 DUP3 ADD MSTORE PUSH1 0x3 DUP3 ADD SLOAD PUSH1 0x60 DUP3 ADD MSTORE PUSH1 0x4 SWAP1 SWAP2 ADD SLOAD PUSH1 0x80 SWAP1 SWAP2 ADD MSTORE DUP3 MLOAD DUP4 SWAP1 DUP4 SWAP1 DUP2 LT PUSH2 0xB36 JUMPI PUSH2 0xB36 PUSH2 0xE2D JUMP JUMPDEST PUSH1 0x20 MUL PUSH1 0x20 ADD ADD DUP2 SWAP1 MSTORE POP DUP1 DUP1 PUSH2 0xB4C SWAP1 PUSH2 0xE7C JUMP JUMPDEST SWAP2 POP POP PUSH2 0xA21 JUMP JUMPDEST POP SWAP5 POP POP POP POP POP JUMPDEST SWAP3 SWAP2 POP POP JUMP JUMPDEST POP DUP1 SLOAD PUSH2 0xB6E SWAP1 PUSH2 0xDCA JUMP JUMPDEST PUSH1 0x0 DUP3 SSTORE DUP1 PUSH1 0x1F LT PUSH2 0xB7E JUMPI POP POP JUMP JUMPDEST PUSH1 0x1F ADD PUSH1 0x20 SWAP1 DIV SWAP1 PUSH1 0x0 MSTORE PUSH1 0x20 PUSH1 0x0 KECCAK256 SWAP1 DUP2 ADD SWAP1 PUSH2 0xB9C SWAP2 SWAP1 PUSH2 0xBDA JUMP JUMPDEST POP JUMP JUMPDEST PUSH1 0x40 MLOAD DUP1 PUSH1 0xA0 ADD PUSH1 0x40 MSTORE DUP1 PUSH1 0x60 DUP2 MSTORE PUSH1 0x20 ADD PUSH1 0x0 PUSH1 0x1 PUSH1 0x1 PUSH1 0xA0 SHL SUB AND DUP2 MSTORE PUSH1 0x20 ADD PUSH1 0x0 DUP2 MSTORE PUSH1 0x20 ADD PUSH1 0x0 DUP2 MSTORE PUSH1 0x20 ADD PUSH1 0x0 DUP1 NOT AND DUP2 MSTORE POP SWAP1 JUMP JUMPDEST JUMPDEST DUP1 DUP3 GT ISZERO PUSH2 0xBEF JUMPI PUSH1 0x0 DUP2 SSTORE PUSH1 0x1 ADD PUSH2 0xBDB JUMP JUMPDEST POP SWAP1 JUMP JUMPDEST PUSH1 0x0 PUSH1 0x20 DUP3 DUP5 SUB SLT ISZERO PUSH2 0xC05 JUMPI PUSH1 0x0 DUP1 REVERT JUMPDEST POP CALLDATALOAD SWAP2 SWAP1 POP JUMP JUMPDEST PUSH1 0x0 DUP2 MLOAD DUP1 DUP5 MSTORE PUSH1 0x0 JUMPDEST DUP2 DUP2 LT ISZERO PUSH2 0xC32 JUMPI PUSH1 0x20 DUP2 DUP6 ADD DUP2 ADD MLOAD DUP7 DUP4 ADD DUP3 ADD MSTORE ADD PUSH2 0xC16 JUMP JUMPDEST POP PUSH1 0x0 PUSH1 0x20 DUP3 DUP7 ADD ADD MSTORE PUSH1 0x20 PUSH1 0x1F NOT PUSH1 0x1F DUP4 ADD AND DUP6 ADD ADD SWAP2 POP POP SWAP3 SWAP2 POP POP JUMP JUMPDEST PUSH1 0xA0 DUP2 MSTORE PUSH1 0x0 PUSH2 0xC65 PUSH1 0xA0 DUP4 ADD DUP9 PUSH2 0xC0C JUMP JUMPDEST PUSH1 0x1 PUSH1 0x1 PUSH1 0xA0 SHL SUB SWAP7 SWAP1 SWAP7 AND PUSH1 0x20 DUP4 ADD MSTORE POP PUSH1 0x40 DUP2 ADD SWAP4 SWAP1 SWAP4 MSTORE PUSH1 0x60 DUP4 ADD SWAP2 SWAP1 SWAP2 MSTORE PUSH1 0x80 SWAP1 SWAP2 ADD MSTORE SWAP2 SWAP1 POP JUMP JUMPDEST PUSH1 0x0 PUSH1 0x20 DUP1 DUP4 ADD DUP2 DUP5 MSTORE DUP1 DUP6 MLOAD DUP1 DUP4 MSTORE PUSH1 0x40 SWAP3 POP DUP3 DUP7 ADD SWAP2 POP DUP3 DUP2 PUSH1 0x5 SHL DUP8 ADD ADD DUP5 DUP9 ADD PUSH1 0x0 JUMPDEST DUP4 DUP2 LT ISZERO PUSH2 0xD22 JUMPI PUSH1 0x3F NOT DUP10 DUP5 SUB ADD DUP6 MSTORE DUP2 MLOAD PUSH1 0xA0 DUP2 MLOAD DUP2 DUP7 MSTORE PUSH2 0xCDF DUP3 DUP8 ADD DUP3 PUSH2 0xC0C JUMP JUMPDEST DUP4 DUP12 ADD MLOAD PUSH1 0x1 PUSH1 0x1 PUSH1 0xA0 SHL SUB AND DUP8 DUP13 ADD MSTORE DUP10 DUP5 ADD MLOAD DUP11 DUP9 ADD MSTORE PUSH1 0x60 DUP1 DUP6 ADD MLOAD SWAP1 DUP9 ADD MSTORE PUSH1 0x80 SWAP4 DUP5 ADD MLOAD SWAP4 SWAP1 SWAP7 ADD SWAP3 SWAP1 SWAP3 MSTORE POP POP SWAP4 DUP7 ADD SWAP4 SWAP1 DUP7 ADD SWAP1 PUSH1 0x1 ADD PUSH2 0xCB9 JUMP JUMPDEST POP SWAP1 SWAP9 SWAP8 POP POP POP POP POP POP POP POP JUMP JUMPDEST PUSH1 0x0 DUP1 PUSH1 0x0 PUSH1 0x40 DUP5 DUP7 SUB SLT ISZERO PUSH2 0xD45 JUMPI PUSH1 0x0 DUP1 REVERT JUMPDEST DUP4 CALLDATALOAD PUSH8 0xFFFFFFFFFFFFFFFF DUP1 DUP3 GT ISZERO PUSH2 0xD5D JUMPI PUSH1 0x0 DUP1 REVERT JUMPDEST DUP2 DUP7 ADD SWAP2 POP DUP7 PUSH1 0x1F DUP4 ADD SLT PUSH2 0xD71 JUMPI PUSH1 0x0 DUP1 REVERT JUMPDEST DUP2 CALLDATALOAD DUP2 DUP2 GT ISZERO PUSH2 0xD80 JUMPI PUSH1 0x0 DUP1 REVERT JUMPDEST DUP8 PUSH1 0x20 DUP3 DUP6 ADD ADD GT ISZERO PUSH2 0xD92 JUMPI PUSH1 0x0 DUP1 REVERT JUMPDEST PUSH1 0x20 SWAP3 DUP4 ADD SWAP9 SWAP1 SWAP8 POP SWAP6 SWAP1 SWAP2 ADD CALLDATALOAD SWAP5 SWAP4 POP POP POP POP JUMP JUMPDEST PUSH1 0x0 DUP1 PUSH1 0x40 DUP4 DUP6 SUB SLT ISZERO PUSH2 0xDBB JUMPI PUSH1 0x0 DUP1 REVERT JUMPDEST POP POP DUP1 CALLDATALOAD SWAP3 PUSH1 0x20 SWAP1 SWAP2 ADD CALLDATALOAD SWAP2 POP JUMP JUMPDEST PUSH1 0x1 DUP2 DUP2 SHR SWAP1 DUP3 AND DUP1 PUSH2 0xDDE JUMPI PUSH1 0x7F DUP3 AND SWAP2 POP JUMPDEST PUSH1 0x20 DUP3 LT DUP2 SUB PUSH2 0xDFE JUMPI PUSH4 0x4E487B71 PUSH1 0xE0 SHL PUSH1 0x0 MSTORE PUSH1 0x22 PUSH1 0x4 MSTORE PUSH1 0x24 PUSH1 0x0 REVERT JUMPDEST POP SWAP2 SWAP1 POP JUMP JUMPDEST PUSH4 0x4E487B71 PUSH1 0xE0 SHL PUSH1 0x0 MSTORE PUSH1 0x11 PUSH1 0x4 MSTORE PUSH1 0x24 PUSH1 0x0 REVERT JUMPDEST DUP2 DUP2 SUB DUP2 DUP2 GT ISZERO PUSH2 0xB5C JUMPI PUSH2 0xB5C PUSH2 0xE04 JUMP JUMPDEST PUSH4 0x4E487B71 PUSH1 0xE0 SHL PUSH1 0x0 MSTORE PUSH1 0x32 PUSH1 0x4 MSTORE PUSH1 0x24 PUSH1 0x0 REVERT JUMPDEST PUSH1 0x0 DUP3 PUSH2 0xE60 JUMPI PUSH4 0x4E487B71 PUSH1 0xE0 SHL PUSH1 0x0 MSTORE PUSH1 0x12 PUSH1 0x4 MSTORE PUSH1 0x24 PUSH1 0x0 REVERT JUMPDEST POP DIV SWAP1 JUMP JUMPDEST DUP1 DUP3 MUL DUP2 ISZERO DUP3 DUP3 DIV DUP5 EQ OR PUSH2 0xB5C JUMPI PUSH2 0xB5C PUSH2 0xE04 JUMP JUMPDEST PUSH1 0x0 PUSH1 0x1 DUP3 ADD PUSH2 0xE8E JUMPI PUSH2 0xE8E PUSH2 0xE04 JUMP JUMPDEST POP PUSH1 0x1 ADD SWAP1 JUMP JUMPDEST PUSH4 0x4E487B71 PUSH1 0xE0 SHL PUSH1 0x0 MSTORE PUSH1 0x41 PUSH1 0x4 MSTORE PUSH1 0x24 PUSH1 0x0 REVERT JUMPDEST PUSH1 0x1F DUP3 GT ISZERO PUSH2 0xEF5 JUMPI PUSH1 0x0 DUP2 DUP2 MSTORE PUSH1 0x20 DUP2 KECCAK256 PUSH1 0x1F DUP6 ADD PUSH1 0x5 SHR DUP2 ADD PUSH1 0x20 DUP7 LT ISZERO PUSH2 0xED2 JUMPI POP DUP1 JUMPDEST PUSH1 0x1F DUP6 ADD PUSH1 0x5 SHR DUP3 ADD SWAP2 POP JUMPDEST DUP2 DUP2 LT ISZERO PUSH2 0xEF1 JUMPI DUP3 DUP2 SSTORE PUSH1 0x1 ADD PUSH2 0xEDE JUMP JUMPDEST POP POP POP JUMPDEST POP POP POP JUMP JUMPDEST DUP2 MLOAD PUSH8 0xFFFFFFFFFFFFFFFF DUP2 GT ISZERO PUSH2 0xF14 JUMPI PUSH2 0xF14 PUSH2 0xE95 JUMP JUMPDEST PUSH2 0xF28 DUP2 PUSH2 0xF22 DUP5 SLOAD PUSH2 0xDCA JUMP JUMPDEST DUP5 PUSH2 0xEAB JUMP JUMPDEST PUSH1 0x20 DUP1 PUSH1 0x1F DUP4 GT PUSH1 0x1 DUP2 EQ PUSH2 0xF5D JUMPI PUSH1 0x0 DUP5 ISZERO PUSH2 0xF45 JUMPI POP DUP6 DUP4 ADD MLOAD JUMPDEST PUSH1 0x0 NOT PUSH1 0x3 DUP7 SWAP1 SHL SHR NOT AND PUSH1 0x1 DUP6 SWAP1 SHL OR DUP6 SSTORE PUSH2 0xEF1 JUMP JUMPDEST PUSH1 0x0 DUP6 DUP2 MSTORE PUSH1 0x20 DUP2 KECCAK256 PUSH1 0x1F NOT DUP7 AND SWAP2 JUMPDEST DUP3 DUP2 LT ISZERO PUSH2 0xF8C JUMPI DUP9 DUP7 ADD MLOAD DUP3 SSTORE SWAP5 DUP5 ADD SWAP5 PUSH1 0x1 SWAP1 SWAP2 ADD SWAP1 DUP5 ADD PUSH2 0xF6D JUMP JUMPDEST POP DUP6 DUP3 LT ISZERO PUSH2 0xFAA JUMPI DUP8 DUP6 ADD MLOAD PUSH1 0x0 NOT PUSH1 0x3 DUP9 SWAP1 SHL PUSH1 0xF8 AND SHR NOT AND DUP2 SSTORE JUMPDEST POP POP POP POP POP PUSH1 0x1 SWAP1 DUP2 SHL ADD SWAP1 SSTORE POP JUMP JUMPDEST DUP2 DUP2 SUB PUSH2 0xFC5 JUMPI POP POP JUMP JUMPDEST PUSH2 0xFCF DUP3 SLOAD PUSH2 0xDCA JUMP JUMPDEST PUSH8 0xFFFFFFFFFFFFFFFF DUP2 GT ISZERO PUSH2 0xFE7 JUMPI PUSH2 0xFE7 PUSH2 0xE95 JUMP JUMPDEST PUSH2 0xFF5 DUP2 PUSH2 0xF22 DUP5 SLOAD PUSH2 0xDCA JUMP JUMPDEST PUSH1 0x0 PUSH1 0x1F DUP3 GT PUSH1 0x1 DUP2 EQ PUSH2 0x1029 JUMPI PUSH1 0x0 DUP4 ISZERO PUSH2 0x1011 JUMPI POP DUP5 DUP3 ADD SLOAD JUMPDEST PUSH1 0x0 NOT PUSH1 0x3 DUP6 SWAP1 SHL SHR NOT AND PUSH1 0x1 DUP5 SWAP1 SHL OR DUP5 SSTORE PUSH2 0x108E JUMP JUMPDEST PUSH1 0x0 DUP6 DUP2 MSTORE PUSH1 0x20 SWAP1 KECCAK256 PUSH1 0x1F NOT DUP5 AND SWAP1 PUSH1 0x0 DUP7 DUP2 MSTORE PUSH1 0x20 SWAP1 KECCAK256 DUP5 JUMPDEST DUP4 DUP2 LT ISZERO PUSH2 0x1063 JUMPI DUP3 DUP7 ADD SLOAD DUP3 SSTORE PUSH1 0x1 SWAP6 DUP7 ADD SWAP6 SWAP1 SWAP2 ADD SWAP1 PUSH1 0x20 ADD PUSH2 0x1043 JUMP JUMPDEST POP DUP6 DUP4 LT ISZERO PUSH2 0x1081 JUMPI DUP2 DUP6 ADD SLOAD PUSH1 0x0 NOT PUSH1 0x3 DUP9 SWAP1 SHL PUSH1 0xF8 AND SHR NOT AND DUP2 SSTORE JUMPDEST POP POP POP PUSH1 0x1 DUP4 PUSH1 0x1 SHL ADD DUP5 SSTORE JUMPDEST POP POP POP POP POP JUMP JUMPDEST PUSH1 0x0 DUP2 PUSH2 0x10A4 JUMPI PUSH2 0x10A4 PUSH2 0xE04 JUMP JUMPDEST POP PUSH1 0x0 NOT ADD SWAP1 JUMP JUMPDEST PUSH4 0x4E487B71 PUSH1 0xE0 SHL PUSH1 0x0 MSTORE PUSH1 0x31 PUSH1 0x4 MSTORE PUSH1 0x24 PUSH1 0x0 REVERT JUMPDEST DUP7 DUP2 MSTORE PUSH1 0xA0 PUSH1 0x20 DUP3 ADD MSTORE DUP5 PUSH1 0xA0 DUP3 ADD MSTORE DUP5 DUP7 PUSH1 0xC0 DUP4 ADD CALLDATACOPY PUSH1 0x0 PUSH1 0xC0 DUP7 DUP4 ADD DUP2 ADD SWAP2 SWAP1 SWAP2 MSTORE PUSH1 0x1 PUSH1 0x1 PUSH1 0xA0 SHL SUB SWAP5 SWAP1 SWAP5 AND PUSH1 0x40 DUP3 ADD MSTORE PUSH1 0x60 DUP2 ADD SWAP3 SWAP1 SWAP3 MSTORE PUSH1 0x80 DUP3 ADD MSTORE PUSH1 0x1F SWAP1 SWAP3 ADD PUSH1 0x1F NOT AND SWAP1 SWAP2 ADD ADD SWAP3 SWAP2 POP POP JUMP JUMPDEST DUP1 DUP3 ADD DUP1 DUP3 GT ISZERO PUSH2 0xB5C JUMPI PUSH2 0xB5C PUSH2 0xE04 JUMP INVALID LOG2 PUSH5 0x6970667358 0x22 SLT KECCAK256 NOT CREATE2 DUP2 INVALID 0xF9 0xF9 BALANCE 0xBE SELFBALANCE 0xC1 0xCD 0xBF PUSH4 0xE01AD313 JUMPDEST 0x4D 0x4D 0x1F DUP15 0xB9 PUSH29 0xE22894B314CA473664736F6C6343000813003300000000000000000000 "},"methodIdentifiers":{"DECAY_INTERVAL()":"95ffd7f7","DECAY_RATE()":"1de40e49","MAX_MESSAGES()":"0dfe5a71","addMessage(string,bytes32)":"f5b0bf62","getMessageCount()":"31933916","getMessages()":"5ff6cbf3","getMessagesPaginated(uint256,uint256)":"fff57ebb","getMinimumBidForTop100()":"e02737d8","lastMessageTimestamp()":"a9e50c10","messages(uint256)":"0d80fefd"}}}}}