{
  "_format": "hh-sol-artifact-1",
  "contractName": "MessageBoard",
  "sourceName": "contracts/MessageBoard.sol",
  "abi": [
    {
      "anonymous": false,
      "inputs": [
        {
          "indexed": false,
          "internalType": "bytes32",
          "name": "messageId",
          "type": "bytes32"
        },
        {
          "indexed": false,
          "internalType": "string",
          "name": "content",
          "type": "string"
        },
        {
          "indexed": false,
          "internalType": "address",
          "name": "sender",
          "type": "address"
        },
        {
          "indexed": false,
          "internalType": "uint256",
          "name": "bidAmount",
          "type": "uint256"
        },
        {
          "indexed": false,
          "internalType": "uint256",
          "name": "timestamp",
          "type": "uint256"
        }
      ],
      "name": "MessageAdded",
      "type": "event"
    },
    {
      "stateMutability": "payable",
      "type": "fallback"
    },
    {
      "inputs": [],
      "name": "DECAY_INTERVAL",
      "outputs": [
        {
          "internalType": "uint256",
          "name": "",
          "type": "uint256"
        }
      ],
      "stateMutability": "view",
      "type": "function"
    },
    {
      "inputs": [],
      "name": "DECAY_RATE",
      "outputs": [
        {
          "internalType": "uint256",
          "name": "",
          "type": "uint256"
        }
      ],
      "stateMutability": "view",
      "type": "function"
    },
    {
      "inputs": [],
      "name": "MAX_MESSAGES",
      "outputs": [
        {
          "internalType": "uint256",
          "name": "",
          "type": "uint256"
        }
      ],
      "stateMutability": "view",
      "type": "function"
    },
    {
      "inputs": [
        {
          "internalType": "string",
          "name": "_content",
          "type": "string"
        },
        {
          "internalType": "bytes32",
          "name": "_messageId",
          "type": "bytes32"
        }
      ],
      "name": "addMessage",
      "outputs": [],
      "stateMutability": "payable",
      "type": "function"
    },
    {
      "inputs": [],
      "name": "getMessageCount",
      "outputs": [
        {
          "internalType": "uint256",
          "name": "",
          "type": "uint256"
        }
      ],
      "stateMutability": "view",
      "type": "function"
    },
    {
      "inputs": [],
      "name": "getMessages",
      "outputs": [
        {
          "components": [
            {
              "internalType": "string",
              "name": "content",
              "type": "string"
            },
            {
              "internalType": "address",
              "name": "sender",
              "type": "address"
            },
            {
              "internalType": "uint256",
              "name": "bidAmount",
              "type": "uint256"
            },
            {
              "internalType": "uint256",
              "name": "timestamp",
              "type": "uint256"
            },
            {
              "internalType": "bytes32",
              "name": "messageId",
              "type": "bytes32"
            }
          ],
          "internalType": "struct MessageBoard.Message[]",
          "name": "",
          "type": "tuple[]"
        }
      ],
      "stateMutability": "view",
      "type": "function"
    },
    {
      "inputs": [
        {
          "internalType": "uint256",
          "name": "_page",
          "type": "uint256"
        },
        {
          "internalType": "uint256",
          "name": "_pageSize",
          "type": "uint256"
        }
      ],
      "name": "getMessagesPaginated",
      "outputs": [
        {
          "components": [
            {
              "internalType": "string",
              "name": "content",
              "type": "string"
            },
            {
              "internalType": "address",
              "name": "sender",
              "type": "address"
            },
            {
              "internalType": "uint256",
              "name": "bidAmount",
              "type": "uint256"
            },
            {
              "internalType": "uint256",
              "name": "timestamp",
              "type": "uint256"
            },
            {
              "internalType": "bytes32",
              "name": "messageId",
              "type": "bytes32"
            }
          ],
          "internalType": "struct MessageBoard.Message[]",
          "name": "",
          "type": "tuple[]"
        }
      ],
      "stateMutability": "view",
      "type": "function"
    },
    {
      "inputs": [],
      "name": "getMinimumBidForTop100",
      "outputs": [
        {
          "internalType": "uint256",
          "name": "",
          "type": "uint256"
        }
      ],
      "stateMutability": "view",
      "type": "function"
    },
    {
      "inputs": [],
      "name": "lastMessageTimestamp",
      "outputs": [
        {
          "internalType": "uint256",
          "name": "",
          "type": "uint256"
        }
      ],
      "stateMutability": "view",
      "type": "function"
    },
    {
      "inputs": [
        {
          "internalType": "uint256",
          "name": "",
          "type": "uint256"
        }
      ],
      "name": "messages",
      "outputs": [
        {
          "internalType": "string",
          "name": "content",
          "type": "string"
        },
        {
          "internalType": "address",
          "name": "sender",
          "type": "address"
        },
        {
          "internalType": "uint256",
          "name": "bidAmount",
          "type": "uint256"
        },
        {
          "internalType": "uint256",
          "name": "timestamp",
          "type": "uint256"
        },
        {
          "internalType": "bytes32",
          "name": "messageId",
          "type": "bytes32"
        }
      ],
      "stateMutability": "view",
      "type": "function"
    },
    {
      "stateMutability": "payable",
      "type": "receive"
    }
  ],
  "bytecode": "0x608060405234801561001057600080fd5b50611160806100206000396000f3fe60806040526004361061008f5760003560e01c806395ffd7f71161005657806395ffd7f714610141578063a9e50c1014610158578063e02737d81461016e578063f5b0bf6214610183578063fff57ebb1461019657005b80630d80fefd146100985780630dfe5a71146100d25780631de40e49146100f5578063319339161461010a5780635ff6cbf31461011f57005b3661009657005b005b3480156100a457600080fd5b506100b86100b3366004610bf3565b6101b6565b6040516100c9959493929190610c52565b60405180910390f35b3480156100de57600080fd5b506100e7606481565b6040519081526020016100c9565b34801561010157600080fd5b506100e7603281565b34801561011657600080fd5b506000546100e7565b34801561012b57600080fd5b5061013461028f565b6040516100c99190610c92565b34801561014d57600080fd5b506100e76201518081565b34801561016457600080fd5b506100e760015481565b34801561017a57600080fd5b506100e76103b7565b610096610191366004610d30565b61048f565b3480156101a257600080fd5b506101346101b1366004610da8565b61089f565b600081815481106101c657600080fd5b90600052602060002090600502016000915090508060000180546101e990610dca565b80601f016020809104026020016040519081016040528092919081815260200182805461021590610dca565b80156102625780601f1061023757610100808354040283529160200191610262565b820191906000526020600020905b81548152906001019060200180831161024557829003601f168201915b5050505060018301546002840154600385015460049095015493946001600160a01b039092169390925085565b60606000805480602002602001604051908101604052809291908181526020016000905b828210156103ae57838290600052602060002090600502016040518060a00160405290816000820180546102e690610dca565b80601f016020809104026020016040519081016040528092919081815260200182805461031290610dca565b801561035f5780601f106103345761010080835404028352916020019161035f565b820191906000526020600020905b81548152906001019060200180831161034257829003601f168201915b50505091835250506001828101546001600160a01b03166020808401919091526002840154604084015260038401546060840152600490930154608090920191909152918352920191016102b3565b50505050905090565b60008054606411156103c95750600090565b6000806103d860016064610e1a565b815481106103e8576103e8610e2d565b906000526020600020906005020160020154905060015460000361040b57919050565b60006001544261041b9190610e1a565b90506201518081101561042e5750919050565b600061043d6201518083610e43565b90508260005b82811015610486576064610458603282610e1a565b6104629084610e65565b61046c9190610e43565b91508115610486578061047e81610e7c565b915050610443565b50949350505050565b600034116104ee5760405162461bcd60e51b815260206004820152602160248201527f42696420616d6f756e74206d7573742062652067726561746572207468616e206044820152600360fc1b60648201526084015b60405180910390fd5b60006104f86103b7565b905080341161057b5760405162461bcd60e51b815260206004820152604360248201527f42696420616d6f756e74206d7573742062652067726561746572207468616e2060448201527f7468652063757272656e74206d696e696d756d2062696420666f7220746f702060648201526203130360ec1b608482015260a4016104e5565b6040805160c06020601f8701819004028201810190925260a0810185815260009282919088908890819085018382808284376000920182905250938552505033602084015250346040830152426060830152608090910185905280546001810182559080528151919250908290600583027f290decd9548b62a8d60345a988386fc84ba6bc95484008f6362f93160ef3e5630190819061061b9082610efa565b5060208201516001820180546001600160a01b0319166001600160a01b0390921691909117905560408201516002820155606082015160038201556080909101516004909101555b6000811180156106a4575060408201516000610680600184610e1a565b8154811061069057610690610e2d565b906000526020600020906005020160020154105b156107585760006106b6600183610e1a565b815481106106c6576106c6610e2d565b9060005260206000209060050201600082815481106106e7576106e7610e2d565b60009182526020909120600590910201806107028382610fba565b5060018281015490820180546001600160a01b0319166001600160a01b0390921691909117905560028083015490820155600380830154908201556004918201549101558061075081611095565b915050610663565b60005461076790600190610e1a565b81146107e857816000828154811061078157610781610e2d565b6000918252602090912082516005909202019081906107a09082610efa565b5060208201516001820180546001600160a01b0319166001600160a01b0390921691909117905560408201516002820155606082015160038201556080909101516004909101555b60005460641015610850576000805480610804576108046110ac565b600082815260208120600019909201916005830201906108248282610b62565b506001810180546001600160a01b03191690556000600282018190556003820181905560049091015590555b4260018190556040517fb134689da6f5f1fbcb32f25a4cc49f1acfd9203eaaa23e6eeb6a42a6ca5f226d9161088f9187918a918a9133913491906110c2565b60405180910390a1505050505050565b6060600083116108f15760405162461bcd60e51b815260206004820152601b60248201527f50616765206d7573742062652067726561746572207468616e2030000000000060448201526064016104e5565b600082116109415760405162461bcd60e51b815260206004820181905260248201527f506167652073697a65206d7573742062652067726561746572207468616e203060448201526064016104e5565b600080549083610952600187610e1a565b61095c9190610e65565b90508181106109a0576040805160008082526020820190925290610996565b610983610b9f565b81526020019060019003908161097b5790505b5092505050610b5c565b60006109ac8583611117565b9050828111156109b95750815b60006109c58383610e1a565b905060008167ffffffffffffffff8111156109e2576109e2610e95565b604051908082528060200260200182016040528015610a1b57816020015b610a08610b9f565b815260200190600190039081610a005790505b50905060005b82811015610b54576000610a358287611117565b81548110610a4557610a45610e2d565b90600052602060002090600502016040518060a0016040529081600082018054610a6e90610dca565b80601f0160208091040260200160405190810160405280929190818152602001828054610a9a90610dca565b8015610ae75780601f10610abc57610100808354040283529160200191610ae7565b820191906000526020600020905b815481529060010190602001808311610aca57829003601f168201915b505050918352505060018201546001600160a01b0316602082015260028201546040820152600382015460608201526004909101546080909101528251839083908110610b3657610b36610e2d565b60200260200101819052508080610b4c90610e7c565b915050610a21565b509450505050505b92915050565b508054610b6e90610dca565b6000825580601f10610b7e575050565b601f016020900490600052602060002090810190610b9c9190610bda565b50565b6040518060a001604052806060815260200160006001600160a01b031681526020016000815260200160008152602001600080191681525090565b5b80821115610bef5760008155600101610bdb565b5090565b600060208284031215610c0557600080fd5b5035919050565b6000815180845260005b81811015610c3257602081850181015186830182015201610c16565b506000602082860101526020601f19601f83011685010191505092915050565b60a081526000610c6560a0830188610c0c565b6001600160a01b039690961660208301525060408101939093526060830191909152608090910152919050565b60006020808301818452808551808352604092508286019150828160051b87010184880160005b83811015610d2257603f19898403018552815160a08151818652610cdf82870182610c0c565b838b01516001600160a01b0316878c0152898401518a88015260608085015190880152608093840151939096019290925250509386019390860190600101610cb9565b509098975050505050505050565b600080600060408486031215610d4557600080fd5b833567ffffffffffffffff80821115610d5d57600080fd5b818601915086601f830112610d7157600080fd5b813581811115610d8057600080fd5b876020828501011115610d9257600080fd5b6020928301989097509590910135949350505050565b60008060408385031215610dbb57600080fd5b50508035926020909101359150565b600181811c90821680610dde57607f821691505b602082108103610dfe57634e487b7160e01b600052602260045260246000fd5b50919050565b634e487b7160e01b600052601160045260246000fd5b81810381811115610b5c57610b5c610e04565b634e487b7160e01b600052603260045260246000fd5b600082610e6057634e487b7160e01b600052601260045260246000fd5b500490565b8082028115828204841417610b5c57610b5c610e04565b600060018201610e8e57610e8e610e04565b5060010190565b634e487b7160e01b600052604160045260246000fd5b601f821115610ef557600081815260208120601f850160051c81016020861015610ed25750805b601f850160051c820191505b81811015610ef157828155600101610ede565b5050505b505050565b815167ffffffffffffffff811115610f1457610f14610e95565b610f2881610f228454610dca565b84610eab565b602080601f831160018114610f5d5760008415610f455750858301515b600019600386901b1c1916600185901b178555610ef1565b600085815260208120601f198616915b82811015610f8c57888601518255948401946001909101908401610f6d565b5085821015610faa5787850151600019600388901b60f8161c191681555b5050505050600190811b01905550565b818103610fc5575050565b610fcf8254610dca565b67ffffffffffffffff811115610fe757610fe7610e95565b610ff581610f228454610dca565b6000601f82116001811461102957600083156110115750848201545b600019600385901b1c1916600184901b17845561108e565b600085815260209020601f19841690600086815260209020845b838110156110635782860154825560019586019590910190602001611043565b50858310156110815781850154600019600388901b60f8161c191681555b50505060018360011b0184555b5050505050565b6000816110a4576110a4610e04565b506000190190565b634e487b7160e01b600052603160045260246000fd5b86815260a060208201528460a0820152848660c0830137600060c08683018101919091526001600160a01b0394909416604082015260608101929092526080820152601f909201601f19169091010192915050565b80820180821115610b5c57610b5c610e0456fea264697066735822122019f581fef9f931be47c1cdbf63e01ad3135b4d4d1f8eb97ce22894b314ca473664736f6c63430008130033",
  "linkReferences": {},
  "deployedLinkReferences": {}
}